{
  "_format": "hh-sol-artifact-1",
  "contractName": "CloudCoinStaking",
  "sourceName": "contracts/CloudCoinStaking.sol",
  "abi": [
    {
      "inputs": [
        {
          "internalType": "uint256",
          "name": "day",
          "type": "uint256"
        },
        {
          "internalType": "uint256",
          "name": "month",
          "type": "uint256"
        },
        {
          "internalType": "uint256",
          "name": "year",
          "type": "uint256"
        }
      ],
      "stateMutability": "nonpayable",
      "type": "constructor"
    },
    {
      "inputs": [],
      "name": "beginDate",
      "outputs": [
        {
          "internalType": "uint256",
          "name": "",
          "type": "uint256"
        }
      ],
      "stateMutability": "view",
      "type": "function"
    },
    {
      "inputs": [
        {
          "internalType": "address",
          "name": "account",
          "type": "address"
        }
      ],
      "name": "calculateReward",
      "outputs": [
        {
          "internalType": "uint256",
          "name": "",
          "type": "uint256"
        }
      ],
      "stateMutability": "view",
      "type": "function"
    },
    {
      "inputs": [],
      "name": "claimReward",
      "outputs": [],
      "stateMutability": "nonpayable",
      "type": "function"
    },
    {
      "inputs": [],
      "name": "emergencyWithdraw",
      "outputs": [],
      "stateMutability": "nonpayable",
      "type": "function"
    },
    {
      "inputs": [],
      "name": "endDate",
      "outputs": [
        {
          "internalType": "uint256",
          "name": "",
          "type": "uint256"
        }
      ],
      "stateMutability": "view",
      "type": "function"
    },
    {
      "inputs": [],
      "name": "owner",
      "outputs": [
        {
          "internalType": "address",
          "name": "",
          "type": "address"
        }
      ],
      "stateMutability": "view",
      "type": "function"
    },
    {
      "inputs": [
        {
          "internalType": "address",
          "name": "",
          "type": "address"
        }
      ],
      "name": "rewards",
      "outputs": [
        {
          "internalType": "uint256",
          "name": "",
          "type": "uint256"
        }
      ],
      "stateMutability": "view",
      "type": "function"
    },
    {
      "inputs": [
        {
          "internalType": "uint256",
          "name": "amount",
          "type": "uint256"
        }
      ],
      "name": "stake",
      "outputs": [],
      "stateMutability": "nonpayable",
      "type": "function"
    },
    {
      "inputs": [
        {
          "internalType": "address",
          "name": "",
          "type": "address"
        }
      ],
      "name": "stakes",
      "outputs": [
        {
          "internalType": "uint256",
          "name": "",
          "type": "uint256"
        }
      ],
      "stateMutability": "view",
      "type": "function"
    },
    {
      "inputs": [],
      "name": "totalStaked",
      "outputs": [
        {
          "internalType": "uint256",
          "name": "",
          "type": "uint256"
        }
      ],
      "stateMutability": "view",
      "type": "function"
    },
    {
      "inputs": [],
      "name": "withdrawReward",
      "outputs": [],
      "stateMutability": "nonpayable",
      "type": "function"
    },
    {
      "inputs": [],
      "name": "withdrawStake",
      "outputs": [],
      "stateMutability": "nonpayable",
      "type": "function"
    }
  ],
  "bytecode": "0x60806040523480156200001157600080fd5b506040516200163e3803806200163e83398181016040528101906200003791906200043b565b336000806101000a81548173ffffffffffffffffffffffffffffffffffffffff021916908373ffffffffffffffffffffffffffffffffffffffff1602179055506200008a838383620000b260201b60201c565b60028190555062093a80600254620000a39190620004c6565b600381905550505050620007d1565b60008084118015620000c45750600083115b8015620000d257506107b282115b62000114576040517f08c379a00000000000000000000000000000000000000000000000000000000081526004016200010b9062000562565b60405180910390fd5b600c8311156200015b576040517f08c379a00000000000000000000000000000000000000000000000000000000081526004016200015290620005d4565b60405180910390fd5b60006002840362000192576200017783620002a660201b60201c565b156200018757601d90506200018c565b601c90505b620001d0565b6004841480620001a25750600684145b80620001ae5750600984145b80620001ba5750600b84145b15620001ca57601e9050620001cf565b601f90505b5b8085111562000216576040517f08c379a00000000000000000000000000000000000000000000000000000000081526004016200020d9062000646565b60405180910390fd5b60006301e133806107b2856200022d919062000668565b620002399190620006a3565b905062015180620002518686620002f760201b60201c565b6200025d9190620006a3565b816200026a9190620004c6565b9050620151806001876200027f919062000668565b6200028b9190620006a3565b81620002989190620004c6565b905080925050509392505050565b600080600483620002b891906200071d565b148015620002d557506000606483620002d291906200071d565b14155b80620002f05750600061019083620002ee91906200071d565b145b9050919050565b600080604051806101800160405280601f8152602001601c8152602001601f8152602001601e8152602001601f8152602001601e8152602001601f8152602001601f8152602001601e8152602001601f8152602001601e8152602001601f8152509050600080600190505b85811015620003ef57826001826200037b919062000668565b600c81106200038f576200038e62000755565b5b602002015182620003a19190620004c6565b9150600281148015620003c15750620003c085620002a660201b60201c565b5b15620003d957600182620003d69190620004c6565b91505b8080620003e69062000784565b91505062000362565b50809250505092915050565b600080fd5b6000819050919050565b620004158162000400565b81146200042157600080fd5b50565b60008151905062000435816200040a565b92915050565b600080600060608486031215620004575762000456620003fb565b5b6000620004678682870162000424565b93505060206200047a8682870162000424565b92505060406200048d8682870162000424565b9150509250925092565b7f4e487b7100000000000000000000000000000000000000000000000000000000600052601160045260246000fd5b6000620004d38262000400565b9150620004e08362000400565b9250828201905080821115620004fb57620004fa62000497565b5b92915050565b600082825260208201905092915050565b7f496e76616c696420646174650000000000000000000000000000000000000000600082015250565b60006200054a600c8362000501565b9150620005578262000512565b602082019050919050565b600060208201905081810360008301526200057d816200053b565b9050919050565b7f496e76616c6964206d6f6e746800000000000000000000000000000000000000600082015250565b6000620005bc600d8362000501565b9150620005c98262000584565b602082019050919050565b60006020820190508181036000830152620005ef81620005ad565b9050919050565b7f496e76616c696420646179000000000000000000000000000000000000000000600082015250565b60006200062e600b8362000501565b91506200063b82620005f6565b602082019050919050565b6000602082019050818103600083015262000661816200061f565b9050919050565b6000620006758262000400565b9150620006828362000400565b92508282039050818111156200069d576200069c62000497565b5b92915050565b6000620006b08262000400565b9150620006bd8362000400565b9250828202620006cd8162000400565b91508282048414831517620006e757620006e662000497565b5b5092915050565b7f4e487b7100000000000000000000000000000000000000000000000000000000600052601260045260246000fd5b60006200072a8262000400565b9150620007378362000400565b9250826200074a5762000749620006ee565b5b828206905092915050565b7f4e487b7100000000000000000000000000000000000000000000000000000000600052603260045260246000fd5b6000620007918262000400565b91507fffffffffffffffffffffffffffffffffffffffffffffffffffffffffffffffff8203620007c657620007c562000497565b5b600182019050919050565b610e5d80620007e16000396000f3fe608060405234801561001057600080fd5b50600436106100b45760003560e01c8063b88a802f11610071578063b88a802f1461018f578063bed9d86114610199578063c24a0f8b146101a3578063c885bc58146101c1578063d82e3962146101cb578063db2e21bc146101fb576100b4565b80630700037d146100b957806316934fc4146100e95780633296607f14610119578063817b1cd2146101375780638da5cb5b14610155578063a694fc3a14610173575b600080fd5b6100d360048036038101906100ce91906108b9565b610205565b6040516100e091906108ff565b60405180910390f35b61010360048036038101906100fe91906108b9565b61021d565b60405161011091906108ff565b60405180910390f35b610121610235565b60405161012e91906108ff565b60405180910390f35b61013f61023b565b60405161014c91906108ff565b60405180910390f35b61015d610241565b60405161016a9190610929565b60405180910390f35b61018d60048036038101906101889190610970565b610265565b005b61019761036c565b005b6101a1610499565b005b6101ab6105ff565b6040516101b891906108ff565b60405180910390f35b6101c9610605565b005b6101e560048036038101906101e091906108b9565b6106ce565b6040516101f291906108ff565b60405180910390f35b61020361075f565b005b60056020528060005260406000206000915090505481565b60046020528060005260406000206000915090505481565b60025481565b60015481565b60008054906101000a900473ffffffffffffffffffffffffffffffffffffffff1681565b6002544210158015610278575060035442105b6102b7576040517f08c379a00000000000000000000000000000000000000000000000000000000081526004016102ae906109fa565b60405180910390fd5b600081116102fa576040517f08c379a00000000000000000000000000000000000000000000000000000000081526004016102f190610a8c565b60405180910390fd5b80600460003373ffffffffffffffffffffffffffffffffffffffff1673ffffffffffffffffffffffffffffffffffffffff16815260200190815260200160002060008282546103499190610adb565b9250508190555080600160008282546103629190610adb565b9250508190555050565b6003544210156103b1576040517f08c379a00000000000000000000000000000000000000000000000000000000081526004016103a890610b5b565b60405180910390fd5b6000600460003373ffffffffffffffffffffffffffffffffffffffff1673ffffffffffffffffffffffffffffffffffffffff1681526020019081526020016000205411610433576040517f08c379a000000000000000000000000000000000000000000000000000000000815260040161042a90610bc7565b60405180910390fd5b600061043e336106ce565b905080600560003373ffffffffffffffffffffffffffffffffffffffff1673ffffffffffffffffffffffffffffffffffffffff168152602001908152602001600020600082825461048f9190610adb565b9250508190555050565b6003544210156104de576040517f08c379a00000000000000000000000000000000000000000000000000000000081526004016104d590610c33565b60405180910390fd5b6000600460003373ffffffffffffffffffffffffffffffffffffffff1673ffffffffffffffffffffffffffffffffffffffff1681526020019081526020016000205411610560576040517f08c379a000000000000000000000000000000000000000000000000000000000815260040161055790610bc7565b60405180910390fd5b600460003373ffffffffffffffffffffffffffffffffffffffff1673ffffffffffffffffffffffffffffffffffffffff16815260200190815260200160002054600160008282546105b19190610c53565b925050819055506000600460003373ffffffffffffffffffffffffffffffffffffffff1673ffffffffffffffffffffffffffffffffffffffff16815260200190815260200160002081905550565b60035481565b6000600560003373ffffffffffffffffffffffffffffffffffffffff1673ffffffffffffffffffffffffffffffffffffffff1681526020019081526020016000205411610687576040517f08c379a000000000000000000000000000000000000000000000000000000000815260040161067e90610cd3565b60405180910390fd5b6000600560003373ffffffffffffffffffffffffffffffffffffffff1673ffffffffffffffffffffffffffffffffffffffff16815260200190815260200160002081905550565b600080600154036106e2576000905061075a565b6001546002546003546106f59190610c53565b620f4240600460008673ffffffffffffffffffffffffffffffffffffffff1673ffffffffffffffffffffffffffffffffffffffff168152602001908152602001600020546107439190610cf3565b61074d9190610cf3565b6107579190610d64565b90505b919050565b60008054906101000a900473ffffffffffffffffffffffffffffffffffffffff1673ffffffffffffffffffffffffffffffffffffffff163373ffffffffffffffffffffffffffffffffffffffff16146107ed576040517f08c379a00000000000000000000000000000000000000000000000000000000081526004016107e490610e07565b60405180910390fd5b60008054906101000a900473ffffffffffffffffffffffffffffffffffffffff1673ffffffffffffffffffffffffffffffffffffffff166108fc479081150290604051600060405180830381858888f19350505050158015610853573d6000803e3d6000fd5b50565b600080fd5b600073ffffffffffffffffffffffffffffffffffffffff82169050919050565b60006108868261085b565b9050919050565b6108968161087b565b81146108a157600080fd5b50565b6000813590506108b38161088d565b92915050565b6000602082840312156108cf576108ce610856565b5b60006108dd848285016108a4565b91505092915050565b6000819050919050565b6108f9816108e6565b82525050565b600060208201905061091460008301846108f0565b92915050565b6109238161087b565b82525050565b600060208201905061093e600083018461091a565b92915050565b61094d816108e6565b811461095857600080fd5b50565b60008135905061096a81610944565b92915050565b60006020828403121561098657610985610856565b5b60006109948482850161095b565b91505092915050565b600082825260208201905092915050565b7f5374616b696e6720706572696f642068617320656e6465640000000000000000600082015250565b60006109e460188361099d565b91506109ef826109ae565b602082019050919050565b60006020820190508181036000830152610a13816109d7565b9050919050565b7f5374616b696e6720616d6f756e74206d7573742062652067726561746572207460008201527f68616e2030000000000000000000000000000000000000000000000000000000602082015250565b6000610a7660258361099d565b9150610a8182610a1a565b604082019050919050565b60006020820190508181036000830152610aa581610a69565b9050919050565b7f4e487b7100000000000000000000000000000000000000000000000000000000600052601160045260246000fd5b6000610ae6826108e6565b9150610af1836108e6565b9250828201905080821115610b0957610b08610aac565b5b92915050565b7f52657761726420706572696f6420686173206e6f7420656e6465642079657400600082015250565b6000610b45601f8361099d565b9150610b5082610b0f565b602082019050919050565b60006020820190508181036000830152610b7481610b38565b9050919050565b7f4e6f207374616b6520666f756e64000000000000000000000000000000000000600082015250565b6000610bb1600e8361099d565b9150610bbc82610b7b565b602082019050919050565b60006020820190508181036000830152610be081610ba4565b9050919050565b7f5374616b696e6720706572696f6420686173206e6f7420656e64656420796574600082015250565b6000610c1d60208361099d565b9150610c2882610be7565b602082019050919050565b60006020820190508181036000830152610c4c81610c10565b9050919050565b6000610c5e826108e6565b9150610c69836108e6565b9250828203905081811115610c8157610c80610aac565b5b92915050565b7f4e6f2072657761726420746f2077697468647261770000000000000000000000600082015250565b6000610cbd60158361099d565b9150610cc882610c87565b602082019050919050565b60006020820190508181036000830152610cec81610cb0565b9050919050565b6000610cfe826108e6565b9150610d09836108e6565b9250828202610d17816108e6565b91508282048414831517610d2e57610d2d610aac565b5b5092915050565b7f4e487b7100000000000000000000000000000000000000000000000000000000600052601260045260246000fd5b6000610d6f826108e6565b9150610d7a836108e6565b925082610d8a57610d89610d35565b5b828204905092915050565b7f4f6e6c79206f776e65722063616e2063616c6c20746869732066756e6374696f60008201527f6e00000000000000000000000000000000000000000000000000000000000000602082015250565b6000610df160218361099d565b9150610dfc82610d95565b604082019050919050565b60006020820190508181036000830152610e2081610de4565b905091905056fea2646970667358221220dd8d07dbe28dabdef9418653289e98af0ab0bba1bcf58f4eab4d6562cf4f1f8864736f6c63430008130033",
  "linkReferences": {},
  "deployedLinkReferences": {}
}